:020000022000DC
:1070000000000420757302005D7302005F730200CC
:1070100061730200637302006573020000000000E8
:107020000000000000000000000000006773020084
:1070300069730200000000006B7302006D730200B0
:107040006D9602006F730200519B02006F73020085
:107050006F7302006F730200D59902006F73020014
:107060006F7302006F7302006F7302006F73020090
:107070006F7302006F7302006F7302006F73020080
:107080006F730200F58702006F7302006F730200D6
:107090006F7302006F73020091B902006F730200F8
:1070A0006F7302006F7302006F7302006F73020050
:1070B0006F7302006F730200000000000000000008
:1070C0006F7302006F7302006F7302006F73020030
:1070D0006F7302006F7302006F7302006F73020020
:1070E0006F7302006F7302006F73020000000000F4
:1070F000000000006F730200000000006F730200C8
:10710000000000000000000000000000000000007F
:10711000000000000000000000000000000000006F
:10712000000000000000000000000000000000005F
:10713000000000000000000000000000000000004F
:10714000000000000000000000000000000000003F
:10715000000000000000000000000000000000002F
:10716000000000000000000000000000000000001F
:10717000000000000000000000000000000000000F
:1071800000000000000000000000000000000000FF
:1071900000000000000000000000000000000000EF
:1071A00000000000000000000000000000000000DF
:1071B00000000000000000000000000000000000CF
:1071C00000000000000000000000000000000000BF
:1071D00000000000000000000000000000000000AF
:1071E000000000000000000000000000000000009F
:1071F000000000000000000000000000000000008F
:10720000354936480A1A02D0072291438D4634493F
:1072100034480A1A06D00722914381F309880222D2
:1072200082F3148830483149314A00F044F831483B
:107230003149324A00F03FF831483249324A00F0D1
:107240003AF832483249334A00F035F83248334987
:10725000334A00F030F833483349344A00F02BF811
:1072600033483449344A00F026F83448344900227F
:1072700000F02CF833483449002200F027F8334856
:107280003349091A082902DB002202604160314AB1
:1072900090471F481F49884205D00268043003B454
:1072A000904703BCF7E700208646EC46002000210B
:1072B000294A9047FEE7884207D0521A05D0037842
:1072C00001300B700131013AF9D17047884202D088
:1072D00002700130FAE770470000042000E003204C
:1072E0000000042000000420A0CC020000230020A5
:1072F0007C230020D0730200D07302000CBE020079
:10730000A0CC02000023002000230020F8BE0200D1
:10731000F8BE0200F8BE0200F8BE0200F8BE02008D
:10732000F8BE0200F8BE0200F8BE0200A0CC0200C7
:107330001CCD02007C2300207C2300207C23002025
:10734000702C0020702C0020702C0020702C00204D
:10735000704C00209D7302008DA70200FEE7FEE73F
:10736000FEE7FEE7FEE7FEE7FEE7FEE7FEE7FEE7F5
:1073700000F002B8FFF7FCBF0F484FF00701884349
:1073800085460E4880470E48016841F4700101604F
:10739000BFF34F8FBFF36F8FFFF732BF09480A4922
:1073A0000A4A884207D0521A05D0037801300B7080
:1073B0000131013AF9D170470000042041910200E7
:1073C00088ED00E0F8BE020000230020002300202A
:1073D000F0B595B01D46164608460C4601F0B8FDBE
:1073E0001A9B0D93CDE9086500252B46082205A9B7
:1073F00020460A958DF82C500C9501F0C5FD079B91
:107400000293069B03939DF814308DF8115003F0FE
:107410000302012A1DD1BDF81420059DC3F3C20348
:10742000C2F383168DF81030B20008230EA920464F
:1074300001F0AAFDC5F3952508AB0093324602ABD7
:107440000EA9284600F0AEFB204601F085FD15B0E0
:10745000F0BD022AF8D1BDF81650C3F3C203C5F33C
:1074600089158DF810300827082D2E4628BF0826CC
:107470003B4632460EA9204601F086FDAD1B08AB07
:1074800002AA31460EA8374400F0F0FB002DEBD1E4
:10749000DAE70000014B01221A707047BD2300207B
:1074A0007047000070B50E4D06460FCD88B06C4693
:1074B0000FC495E80F00002E84E80F00094A0A481F
:1074C0004FF0060308BF00226946009302F056F809
:1074D00008B100F0C5FD054B1E7008B070BD00BFBF
:1074E000F8BE020095740200002300207C230020D7
:1074F00007B5044B0093044A4023FFF769FF03B02C
:107500005DF804FB0D7502007D23002038B50D48A1
:107510000D4C0E4D002323700378EB5CD2B263B1A7
:10752000043002F0DFFF08B100F09AFD084B1A7832
:1075300012B12378002BFBD038BD0C3002F062FD75
:10754000F1E700BF00230020BD230020502A0020C7
:107550007C23002008B50848084A0378D35C3BB177
:10756000043002F02FFFBDE808400020FFF79ABF6B
:107570000C3002F0DFFCF6E700230020502A002048
:107580000120FFF78FBF000008B5FFF7F9FF04489F
:10759000042100F071FA034B01225A7108BD00BFAB
:1075A000E8BE020014230020037813F0040216D072
:1075B00003F00303012B03D0022B09D001207047F5
:1075C0000A6800880232C0F3831002440A60F5E7BB
:1075D0000B684288023303EB92130B60EEE7104610
:1075E000704700002DE9F04FDFF81CA187B00F466F
:1075F00000230446861C0DF1070015468DF8073060
:1076000000F08AFFDAF804203A60DAF8083003F56F
:1076100080739B1A0AF21C470AF583690AF2144820
:10762000B3421AD30020002D69D004F00F039B0150
:1076300043F0050363F30F00DAF80430DAB20332E3
:1076400033444AF822009DF80700CAF8043000F0DD
:1076500087FF012007B0BDE8F08F0121384601F017
:10766000A6F9484601F0BBF9404601F0B8F9DAF84E
:1076700008000290C0B203300AEB800002A9FFF7B5
:1076800093FF029B30BBDAB20AEB8202D16803910E
:107690009A1C0133DBB20AEB83030292D3F80CB0DD
:1076A00001F00303012B22D0022B15D08346404664
:1076B00001F098F910B1029BCAF8083059463846D3
:1076C00001F075F9DAF80830DAF8042003F5807370
:1076D0009B1AA5E7D8B2CEE7BDF80E30C3F38913E5
:1076E00003334FEA1B4B02EB93030293DFE7BDF832
:1076F0000C30C3F383134FEA1B4B1344F5E7A40587
:1077000044F0060098E700BF90240020064B07488D
:1077100010B500221A7001F0D4FB044610B90448D9
:1077200001F07CFC204610BD902400205CBE0200CD
:107730004CBF020030B50A4C71B10A4A0A49121B0B
:10774000D20800239A4201D1002030BD31F82350E5
:10775000854202D00133F5E7034654F83300F4E7DD
:1077600070BE0200E8BE020000230020094B013970
:1077700003EBC000032909D8DFE801F00A02040680
:1077800004207047007970474079704700207047A7
:107790000220704770BE020070470000034BD3E91F
:1077A0000130C31A58425841704700BF902400204E
:1077B0002DE9F04186B0FFF7F1FF0546002840F0C3
:1077C000ED80774CC4F81804BFF34F8FA368029381
:1077D000DBB2033304EB830002A9FFF7E5FE029B53
:1077E00018B1D4F81824002A5AD0DAB2991C0133FF
:1077F00004EB8202DBB204EB8303D268DB68049300
:1078000002F00303022B0392029154D1BDF80E3013
:107810006448C3F38917502F3E4628BF502606F10F
:10782000080166F38F13C1F30901ADF80E3001F0C2
:1078300060FB0546002800F09C8001F089FB0023D6
:10784000082203A9284601F095FB0299CB43DBB23D
:107850000133C9B20331B6EB830F4FEA830204EB65
:10786000810125D95FFA82F80823A6EB080628468D
:1078700001F080FBF6B208F108034B4903F0FC036A
:107880003246284601F076FB029B033703EB97074D
:107890000297D4F81834002B43D1D4F8106453E085
:1078A00062689A4294D8A260284606B0BDE8F0818A
:1078B00008233246E5E7012B5BD1BDF80C3039488F
:1078C000C3F38311062928BF062161F3891302310E
:1078D00001F00F018900ADF80C3001F00AFB0546FC
:1078E000002846D001F034FB0023082203A92846D3
:1078F00001F040FB0026BDF80C20C2F38312B30058
:10790000964203F10803C4D202994A1CC9B203315A
:10791000029204EB81010422284601F02BFB013680
:10792000E9E7284601F018FBFFF738FF80F0010077
:10793000C5B2B9E7F3685B7923B1336829461B68A0
:1079400030469847F3681E68002EF3D1284601F0B0
:1079500003FB0DF107008DF8076000F0DDFDD4F8A2
:1079600018340BB9029BA3609DF8070000F0F8FDE6
:10797000DAE7D4F8104454B90C4B0D480D49C01A3D
:10798000C008000440F0020000F05EF8CCE7236875
:1079900020469B689847E3681C68ECE7002583E76E
:1079A000902400205CBE02009C24002070BE0200D7
:1079B00098BE020035BF02002DE9F34704460E468B
:1079C000924601A9012218469946FFF70BFE1C4F6B
:1079D00010B3019D4FF00008AA1CC84508EB020136
:1079E00025D11848002100F0B3FF80F310000004F7
:1079F00040EA1440E4006B1C04F03804DBB2EDB242
:107A000044F0010407EB8303033544EA881444EA95
:107A10008624D86047F825403B781BB1FFF7C8FEA5
:107A20000028FBD1FFF7B8FE02B0BDE8F087C9B26D
:107A300007EB81015AF82830CB6008F10108CCE748
:107A400090240020AC28002000231A46FFF7B4BF82
:107A500007B50123019201AAFFF7AEFF03B05DF85D
:107A600004FB07B5CDE9002302236A46FFF7A4FF14
:107A700003B05DF804FB000030B50F4CD4F81024BF
:107A800003460020114631B9D96808714AB9C4F8D3
:107A900010340A6030BDC9680D79854206D0096886
:107AA000F1E7D26814680C601360F3E701300A282C
:107AB000E8D14FF0FF30EDE79024002038B5084BB7
:107AC0000125D3F810441D7004B938BDE3685D7119
:107AD000236820465B689847E3681C68F4E700BFAA
:107AE0009024002030B5C38885B004460D4633B1DC
:107AF000144A00921449154A284600F0D6FF217A0C
:107B000005291DD0637A4BB1A088FFF72FFE104BDB
:107B1000104953F82020284600F0C7FF227A0E4B68
:107B2000A08853F8222003920021FFF703FE039A56
:107B30000A490346284605B0BDE8304000F0B5BF0D
:107B400005B030BD78BF020060BF020058BF020020
:107B5000E4BF02007DBF020008C0020080BF020037
:107B600007B503460846197A052911D05B7A2BB16F
:107B7000094A0A49019000F098FF019808490190CC
:107B800000F093FF019803B05DF804EB00F082BFB2
:107B9000002AF8D0F2E700BF78BF02007DBF0200E4
:107BA00075BF02002DE9F04385B01F460C9D0023F0
:107BB00095F80C902B7306460C469046294638469D
:107BC000FFF790FFB8F1060F09D8DFE808F00412BC
:107BD000181F283340003146284600F066FF002277
:107BE00029463846FFF7BCFF85F80C9005B0BDE884
:107BF000F08322683146284600F057FFEFE7D4E9CA
:107C000000233146284600F050FFE8E7A3680093C0
:107C10003146D4E90023284600F047FFDFE7E36858
:107C20000193A36800933146D4E90023284600F06D
:107C30003CFFD4E723690293E3680193A3680093B0
:107C40003146D4E90023284600F02FFFC7E76369D7
:107C5000039323690293E3680193A3680093314679
:107C6000D4E90023284600F020FFB8E708292DE9D1
:107C7000F74F80460E4617461C463CD8002593F821
:107C80000C901D7319461046FFF72CFFDFF888A0F3
:107C9000DFF888B0AE4231D918F8052059462046A1
:107CA00000F003FF0135082DF4D11949194DDFF813
:107CB00070A0204600F0F9FE4FF0000B5E4522D97F
:107CC00018F80B207E2A05D81046019204F00CF813
:107CD000019A00B92E225146204600F0E6FE0BF133
:107CE000010BBBF1080FE9D1012221463846FFF70D
:107CF00037FF84F80C9003B0BDE8F08F5146204662
:107D000000F0D3FECEE72946204600F0CEFEE6E79F
:107D100094BF020092BF020090BF02008ABF02001F
:107D200096BF0200C30710B507D4F023054A4008E8
:107D3000145C23401943115410BD0901C9B20F232B
:107D4000F4E700BF5829002030B5094B1C78094BD7
:107D5000196800239C4202DC0022104630BD11F855
:107D60003350854201EBC302F7D00133F2E700BF85
:107D7000482900207829002013B504460191FFF717
:107D8000E3FF38B143682BB10199204602B0BDE84A
:107D90001040184702B010BD034B04481968002278
:107DA000490800F081BA00BF4C29002020230020A0
:107DB00010B5C0B2FFF7C8FF0446007801F0FCFD23
:107DC00063785A1E53425341834208D1044BD3E98E
:107DD0000023134303D1BDE81040FFF7DDBF10BD02
:107DE0005029002037B54308374AD35CC2074CBF3F
:107DF0001B0903F00F0304460D46042B25D8DFE8CA
:107E000003F003262F3C4000F9B10121FFF78AFF60
:107E100000230DF107008DF8073000F07DFB0120F5
:107E2000A4F12003C4F12001284A20FA01F100FA4C
:107E300003F30B43A040D2E9004120430B43C2E9C6
:107E400000039DF8070000F08BFB03B030BD002954
:107E500018BF0221204603B0BDE83040FFF762BFE3
:107E600049B10321FFF75EFF0121204603B0BDE8C1
:107E70003040FFF781BF0121ECE70029E5D1042163
:107E8000E8E709B10321E5E7FFF74CFF2946204663
:107E9000FFF772FF0DF107008DF8075000F03CFB73
:107EA0000120A4F12003C4F12001084A20FA01F1C5
:107EB00000FA03F30B43A040D2E9004124EA00009A
:107EC00021EA0303BBE700BF582900205029002006
:107ED0002DE9F041124E134F00243378A34208DC01
:107EE000114BD3E90023134318D0BDE8F041FFF74D
:107EF00053BF3D6805EBC40815F8340001F05CFD84
:107F000098F801305A1E53425341181A41424141D8
:107F100015F83400FFF766FF0134DEE7BDE8F081B5
:107F2000482900207829002050290020092AF7B587
:107F300005460C4616463ED901F044FCE8B11F4BFD
:107F40001F481D601F4B204F1C70204B002120221A
:107F50001E6003F0F7FE1E4B00200021C3E9000164
:107F6000013CE4B20326FF2C0DD11A4A1A48002125
:107F700003B0BDE8F04000F085B901F0DDFB00285A
:107F8000DDD003B0F0BD9DF8063015F834008DF853
:107F9000046005EBC40223F007038DF8063001A945
:107FA00093788DF805303A4601F016FC013CE4B2B6
:107FB0000028D8D0E5E70720E3E700BF78290020B4
:107FC0005829002048290020B17D02004C290020BA
:107FD00050290020D17E020028C0020070B5084D53
:107FE000084E00242B789C4201D3002070BD3368DA
:107FF000012113F8340001F06FFC0134F2E700BFF7
:10800000482900207829002073B5114D114E002415
:108010002B789C4215D300230DF107008DF8073013
:1080200000F07AFA0C4B00210020C3E900019DF812
:10803000070000F095FA094802B0BDE8704000F072
:1080400061B9336813F8340001F094FC0134DFE7C0
:1080500048290020782900205029002020230020D2
:108060001FB50021039001AA44F20100CDE90111DE
:1080700000F004F805B05DF804FB000038B572B6F6
:10808000FFF71CFDFFF794FB0028FBD1104B114CB0
:10809000114D1249E41AE408240444F00100FFF7EA
:1080A000D3FCD5F8F030DB0700D500BE0C4944F016
:1080B0000200FFF7C9FCBFF34F8FEA68094B02F4D7
:1080C000E0621343EB60BFF34F8F00BFFDE700BFDB
:1080D00070BE020098BE020000ED00E02CC002005D
:1080E00038C002000400FA0510B5D0E90243D1E916
:1080F0000202A04272EB03032CBF0120002010BD3E
:1081000008B50A4800F05FFB094AD2E90031C018FF
:10811000084BD3E9002341F10001904271EB0303C6
:1081200003D210F1807041F1000108BD402300200E
:1081300080290020F829002037B505460C460A485A
:1081400001A900F074FB60B10570446001A9064804
:1081500000F097FB18B1054800F03AFB002003B08F
:1081600030BD0420FBE700BFE429002040230020AD
:10817000294B73B51E7804461EB90026304602B05E
:1081800070BD0028F9D0FFF7BBFFD4E9022390426D
:10819000994139D300230DF107008DF8073000F025
:1081A000BBF923692BB94FF0FF324FF0FF33C4E91D
:1081B00002239DF8070000F0D3F9D4E90530984771
:1081C00000250DF107008DF8075000F0A5F923698F
:1081D000C3B1D4E90212B2F1FF3F08BFB1F1FF3FD2
:1081E00005D05B1842F10002C4E9023235469DF821
:1081F000070000F0B5F9002DBFD00848214600F077
:108200002CFFBBE71D46F2E7B3F1FF3F08BFB2F119
:10821000FF3FB2D0F1E700BF8829002054C0020020
:1082200013B5114B114918680190082310485822C2
:1082300000F0EAFA044698B90E4A0F4801A900F086
:10824000B3F9044660B90C48012100F09FFA0123FC
:108250000A4A0948194600F001FA094B01221A702E
:10826000204602B010BD00BF50C002008C29002083
:10827000E42900206183020040230020FFFF7F00EB
:108280008829002030B56AB103684FF0FF344FF001
:10829000FF355A614A1E5142C3E9024551411961F5
:1082A000002030BD0720FCE7F7B5044600250DF19E
:1082B000070017460E468DF8075000F02DF9D4E957
:1082C0000223B3F1FF3F08BFB2F1FF3F07D1FFF731
:1082D00017FF301841F10001C4E9020101259DF8A2
:1082E000070000F03DF955B12369A76103B126618C
:1082F0002146002003B0BDE8F040FFF71DBF28462F
:1083000003B0F0BD37B5054600240DF107008DF828
:10831000074000F001F9D5E90223B3F1FF3F08BFA0
:10832000B2F1FF3F1FBF4FF0FF324FF0FF33C5E9FF
:10833000022301249DF8070000F012F934B1294608
:10834000012003B0BDE83040FFF7F6BE204603B081
:1083500030BD0000014800F036BA00BF40230020C5
:108360002DE9F743064600F019FA40B1624AD2E916
:10837000003113F1807341F10001C2E900310021A5
:10838000304600F01AFA38B15C4C236823B12068FB
:10839000FFF7EEFE002323600121304600F00DFAC6
:1083A00020B1FFF7ADFE564BC3E900015548534CD1
:1083B00001A900F076FA4FF0FF384FF0FF39A0B96D
:1083C000DFF844814D4D404600F05DFE002800F08E
:1083D0008580D0E90223B3F1FF3F08BFB2F1FF3F30
:1083E00032D1404600F049FEEDE70378012B20D062
:1083F000022B08D1444D284600F03FFE002877D0DC
:10840000C0E90289F7E75BB94168D1E90223B3F11A
:10841000FF3F08BFB2F1FF3F02D03B4800F01DFE16
:1084200001A9384800F068FA01A9364800F039FA85
:10843000C5E741682368994202D100232360EFE732
:10844000314800F023FEEBE7296891B12968D1E9B2
:10845000020182428B412FD22B68D3E90223B3F170
:10846000FF3F08BFB2F1FF3F03D02968404600F04C
:10847000F4FD404600F001FED0E902490746FFF74F
:108480003FFE201A69EB0109012879F1000318DB8E
:10849000B0F5350F13D3FFF75DFF1C4A02441C48AB
:1084A0004FF49603002100F0F9F890B92B6813B946
:1084B000304600F0CBF82F6003B0BDE8F0832246D1
:1084C000EDE71348002100F06EF93846FFF750FE43
:1084D00001E00D28F9D000232B6074E7074B1B68DF
:1084E000002BE9D1304603B0BDE8F04300F0B2B84C
:1084F000084B01221A7093E780290020002A0020EF
:10850000F8290020E429002054C00200FFFFB40035
:10851000402300208829002070B5EFF3108672B642
:108520000C4A946801239CB993600B4B0B4DD3F814
:10853000801029401160C3F88050D3F88410516036
:108540004FF0FF32C3F88420047006B962B670BDE4
:108550000370FAE7042A002000E100E0FC06FFBDFA
:10856000084B9A6810B55AB150B9EFF3108172B642
:10857000054A1C6814605C685460986001B962B672
:1085800010BD00BF042A002000E100E0435882B083
:108590003BB10023435043580193019B012002B09B
:1085A00070471846FBE70000F8B5204B4479204E91
:1085B00043F824201F4A204B06EBC4049B1A22795F
:1085C000DB081B0432B143F002001C49FFF73CFA00
:1085D0000820F8BD02680C88C2F8084590F90450DC
:1085E0008A7804795201002DD2B219DB14494F194F
:1085F00087F8002301226D0904F01F0402FA04F435
:1086000041F82540427906EBC201012446F83200C8
:108610000C7143F003000B49FFF716FA0020D8E76E
:10862000094904F00F040A55ECE700BF182A00209E
:10863000102A002070BE0200A8BE020060C0020026
:1086400000E100E082C0020014ED00E003680122B6
:108650001A607047036801225A60704773B501F1D0
:108660005005AD000068ADB24FF480348C40002658
:10867000C0F80843C0F84843465101F5A871455970
:10868000019522F07F42019D40F82120C0F844432B
:108690000BB1C0F8044302B070BD00002DE9F74FE4
:1086A0000D4622F07F4402684FF4803705F15006F2
:1086B0008F408046B60002EB8500C2F84873B6B220
:1086C000C2F80873D2F8041599464FF0000BD0F8A1
:1086D0004035C0F8401542F806B05B1A9259009236
:1086E00023F07F43012B009A4FEA850A0CD1264BD9
:1086F0004FF4806043F001039847D8F8003043F806
:1087000006B09B590193019BD8F80010D1F804657D
:10871000C1F84473A31B23F07F43012B1CD11A4BD8
:1087200005F5A875013443F0010341F825404FF4E5
:1087300080609847D8F80030D3F804359E4209D1BC
:10874000D8F800300020C3F84473C3F8047303B0B2
:10875000BDE8F08F0D20FAE78A44C9F1FF13CAF88B
:108760004045D1F80405221A013A22F07F4203F570
:108770007F439342EED3002AE2D10134CAF8404548
:10878000D1F804359842DAE7A0C00200036802225B
:10879000C3F8442309B1C3F80423704700684FF4B9
:1087A0008271FFF7F3BE4FF4803303FA01F10368DF
:1087B000C3F84813C3F808137047503189000068A4
:1087C00089B2FFF7E3BE0368D3F8040570470000E1
:1087D00090F90430002B09DB5A09012103F01F0333
:1087E00001FA03F34032024941F82230704700BFDA
:1087F00000E100E0024B034A1B681068184700BF05
:10880000182A0020102A002010B561B1B2FBF3F441
:1088100003FB1424A4B244B9C0E90014846082812B
:10882000C381204610BD0E20FCE70920FAE737B5CA
:1088300050E8013F9DB2C48925448489A54228BFE0
:108840002D1B0489A54202BFBFF32F8F002207E032
:10885000C5EA030540E80154002CE9D14FF00102BC
:108860008DF803200193019A0A609DF8031001F02E
:10887000FF0321B1006810FA82F003B030BD184642
:10888000FBE70A884B889A4209D150E8012FC2EAD7
:10889000024240E80123002BF7D10120704700205D
:1088A000704737B550E8023F1FFAA3F5C488A542C8
:1088B00002BFBFF32F8F00220DE0C48925448489B5
:1088C000A54228BF2D1BC3EA054540E80254002CF1
:1088D000E8D14FF001028DF803200193019A0A605C
:1088E0009DF8031001F0FF0321B1006800EB124076
:1088F00003B030BD1846FBE70A884B889A4209D17D
:1089000050E8022FC2EA224240E80223002BF7D1AE
:10891000012070470020704701F01F024B09012120
:10892000914000EB830000F01EB801F01F0301220C
:108930009A404B0900EB8300D14300F02CB84B095F
:1089400001F01F0150F82300C84000F001007047FB
:1089500010B5034653E8000F0A4643E8002494F09C
:10896000000FF7D110BD10B5034653E8002F42EABF
:10897000010043E8000494F0000FF6D110BD10B5DB
:10898000034653E8000F00EA010243E8002494F094
:10899000000FF6D110BD10B5034653E8002F02EAD0
:1089A000010043E8000494F0000FF6D110BD10B5AB
:1089B000034653E8002F02EB010043E8000494F063
:1089C000000FF6D110BD10B5034653E8002FA2EBFF
:1089D000010043E8000494F0000FF6D110BD01211E
:1089E000FFF7C1BF0021FFF7CABF10B590B1D0E9B2
:1089F000012301689B1ADBB20A60013BDBB2FF2B4B
:108A0000026802D10020107110BD11684C1C146066
:108A10000B70F2E70E20F7E737B5054600240DF19D
:108A200007008DF80740FFF777FD2A686B6811682B
:108A300099420ED9481E106011F8013CEC68298A51
:108A400001FB0344AB6811791B1ADBB2994238BFB2
:108A500013719DF80700FFF783FD204603B030BD7A
:108A600037B5054600230DF107000C468DF8073099
:108A7000FFF752FD2A681368591C1160E968641AEF
:108A8000298AB4FBF1F41C709DF80700FFF768FD1C
:108A900003B030BD826810B504462AB1436901684D
:108AA000006998470023A36010BD0EB403B5039975
:108AB00021B104AB01AA019300F076F802B05DF891
:108AC00004EB03B070470A2938B504460D4602D1BD
:108AD0000D21FFF7F8FFA3682268591CA160D55447
:108AE000D4E901329A4204D32046BDE83840FFF76A
:108AF000D1BF38BD2DE9F84F9846DDE90A43154648
:108B000082460F460A464FF00109AA420FD2C145DC
:108B100038BFC14613F0010B01D16CB90024012606
:108B2000B8F1010F1BD908F1FF386E43F8E709F1DE
:108B30000109B2FBF5F2E8E79B070ED5B8F1000F8B
:108B40000CBF30262026A145E9D2013C31465046D3
:108B5000FFF7B9FF002CF6D1E0E72026F3E7B7FBDB
:108B6000F6F39D42E1D9DFF83C80B7FBF6F35046BF
:108B700018F8031006FB1377FFF7A5FF3346AB4247
:108B8000B6FBF5F6F1D2BBF1000F02D00CB1A14556
:108B900001D3BDE8F88F20215046013CFFF793FF39
:108BA000F4E700BFA6C002002DE9F74F05461746BF
:108BB0008846002900F03E8118F8011B49B92B7B3B
:108BC000002B00F03781284603B0BDE8F04FFFF7D7
:108BD00061BF252940F0B780002698F800302D2B82
:108BE000424608F1010823D0302B24D02B2B25D06E
:108BF00000242A2B02F1010123D13B681A1D1B68B6
:108C00003A601C440A4613782E2B26D101324FF0CD
:108C1000000A104610F8011BA1F1300CBCF1090F3D
:108C20001DD80A2303FB0A13A3F1300A0246F0E71A
:108C300046F00106D1E746F00206CEE746F004060C
:108C4000CBE711F8013CA3F130000928DBD80A2258
:108C500002FB0434303C0A46CBE74FF0000A12F81E
:108C6000011B01F0FB0068289046F8D0782909D84C
:108C70006F290CD8632962D022D8252963D05829BE
:108C800000F0888098F80030002B95D197E7703974
:108C90000829F7D801A353F821F000BF0F8E020076
:108CA000858C0200858C0200A58D0200858C020057
:108CB000838D0200858C0200858C0200958D020058
:108CC000642901D06929DDD13A68D2F80090111DDC
:108CD00089EAE9723960A2EBE9724FF0010B092AC7
:108CE00035DCD34538BFD3462CB1B9F1000F01DBD9
:108CF000720700D5013CB30702D5BAF1000F03D0CB
:108D0000F00701D44CBB0024B9F1000F2DDAC9F1F2
:108D100000092D212846FFF7D6FE06F00302022A9D
:108D200004D1BAF1000F01D11CBB0024CDE90046EB
:108D300053460A2249462846FFF7DCFEA2E73B6875
:108D40001A1D19783A602846FFF7BDFE9AE70A23F4
:108D50000BF1010BB2FBF3F2C1E7A345D4D2202102
:108D60002846013CFFF7AFFECCE77107D5D52B2194
:108D7000D0E7A345DAD230212846013CFFF7A3FE15
:108D8000D2E73968CDE900460A1D3A6053460A2207
:108D90000968D0E739680A1D3A60CDE900465346B4
:108DA0001022F5E73B681A1D3A6016F00106D3F869
:108DB000009024D1B9F1000F03D0484602F0F5FF2E
:108DC0000646B4421DD809F1FF3919F8011F0029E0
:108DD0003FF458AF2846FFF776FEF6E728460136FF
:108DE000FFF771FE19F806100029F7D1A642BFF46B
:108DF00049AF20212846013CFFF765FEF6E7002633
:108E0000F0E720212846013CFFF75DFED9E73B68EB
:108E10001A1D3A60302128461C68FFF754FE78215D
:108E20002846FFF750FE00220823CDE900322146F4
:108E3000102280E703B0BDE8F08F00BF2DE9F84FA6
:108E4000B0F806A04579D2F800B09DF828900AFB4A
:108E500005F5043D88460BEB0301A94203F1040428
:108E600088BFA5EB030BB4FBFAF607460AFB1644D2
:108E7000C2F800B04EB9AAEB04055D4528BF5D46B7
:108E8000BBF1000F04D1BDE8F88F3F68013EF1E768
:108E9000043408EB06003C442A46B9F1000F0DD01B
:108EA0002146ABEB050B02F024FFDA452E443F6868
:108EB00055464FF0000428BF5D46E1E701462046D5
:108EC000EFE7FFF792BDF8B546790146721E0546F9
:108ED000002393422D6803D30024A64202D8F8BD94
:108EE0000133F6E70F682846FFF7BAFD013439462B
:108EF000F3E72DE9F843068ACD1C0746FFF78CFD02
:108F0000043E35440446B5FBF6F5F0B14FF48073EA
:108F1000EDB28380C680013D076081464FF00008B6
:108F2000A84512D23846FFF777FD064648B1637967
:108F30000133637108F10108C9F800000760814638
:108F4000EEE72046FFF7BFFF34462046BDE8F88332
:108F500001210430FFF72BBD10B501210446043078
:108F6000FFF731FDC0B220B92046BDE81040FFF741
:108F7000AABF10BD1FB503920022009203AAFFF7FB
:108F80005DFF05B05DF804FB1FB50392012200925E
:108F900003AAFFF753FF05B05DF804FB41DF7047FC
:108FA000064B10B500241C70054B1C60BFF35F8F8F
:108FB0000449054800F03BF8204610BD242A002053
:108FC000282A0020C0C002001C2A002007B5002368
:108FD0000DF107008DF80730FFF79EFAF1EE103A19
:108FE00023F09F03E1EE103ABFF35F8F0A4B40225C
:108FF000C3F884219DF80700FFF7B2FA02F0AEFC37
:1090000020B103B05DF804EBFFF7C8BF20BF40BF3D
:1090100020BF03B05DF804FB00E100E0836800229C
:109020005A60C3E904229A60DA601A6070470B68DC
:109030004A684360934208BF0023016008BF436051
:109040007047436843B10268916852680B44934289
:10905000436004BF00234360704770B54468064610
:109060000D46206818B1B3682946984718B9236897
:109070002B60256070BD2468F3E74368186808B169
:1090800002681A6070474368186870474368186838
:1090900000B97047884203D102681A600120704706
:1090A00003460068F4E7000010B50D49A1F594727D
:1090B000914201D800200FE08C1AE30F03EBE40388
:1090C0005B1002EBC30452F83330834205D802D25E
:1090D00004F10802ECE7606810BD2146E8E700BF34
:1090E000CCC5020008B5FFF7DFFF024B002808BF20
:1090F000184608BD8FC402004FF08053D3F83001EA
:10910000A0F1080358425841704700004FF08053C7
:10911000D3F83021082A06D1D3F83431052B02D8F0
:10912000024AD05C70470020704700BFD2C50200E1
:10913000024AD2F80034002BFBD0704700E0014017
:1091400010B5FFF7D9FF40B14FF080430022C3F8BC
:109150000C21C3F81021C3F83825FFF7CDFF0028F4
:1091600046D04FF08052654BD2F80414C3F8201556
:10917000D2F80814C3F82415D2F80C14C3F8281533
:10918000D2F81014C3F82C15D2F81414C3F8301503
:10919000D2F81814C3F83415D2F81C14C3F84015CB
:1091A000D2F82014C3F84415D2F82414C3F8481593
:1091B000D2F82814C3F84C15D2F82C14C3F8501563
:1091C000D2F83014C3F85415D2F83414C3F860152B
:1091D000D2F83814C3F86415D2F83C14C3F86815F3
:1091E000D2F84014C3F86C15D2F84424C3F87025A3
:1091F000FFF78CFF18B1424B424AC3F88C26FFF7A9
:1092000085FF18B1404BFB22C3F81825FFF77EFFFE
:1092100070B14FF080414FF08053D1F8E42ED3F875
:10922000583222F00F0203F00F031343C1F8E43E5B
:10923000FFF76CFF20B1354B4FF40072C3F84026A6
:10924000FFF75AFF48B14FF08043D3F80024D2070C
:1092500044BF6FF00102C3F800242D4AD2F88830D1
:1092600043F47003C2F88830BFF34F8FBFF36F8FA2
:109270004FF08053D3F83021082A0ED1D3F834317F
:10928000052B02D8234AD35C3BB14FF01023D3F80F
:1092900008224FF08043C3F858254FF01023D3F82D
:1092A0000022002A03DBD3F80432002B22DA1A4909
:1092B00001234FF01020C1F804351224FFF738FFC6
:1092C000C0F80042FFF734FFC0F80442FFF730FF58
:1092D0000023C1F80435FFF72BFFBFF34F8F0C4974
:1092E0000E4BCA6802F4E0621343CB60BFF34F8FAA
:1092F00000BFFDE70A4B0B4A1A6010BD00C00040DA
:10930000005000404881030000F0004000900240FF
:1093100000ED00E0CCC5020000E001400400FA05C9
:10932000482300200090D003074B1B5C1F2B86BFF7
:10933000064903F01F034FF0A041012202FA03F394
:10934000C1F80C35704700BFD8C5020000030050BB
:10935000074B1B5C1F2B86BF064903F01F034FF012
:10936000A041012202FA03F3C1F80835704700BF9B
:10937000D8C502000003005008B50020FFF7E8FF41
:109380000120FFF7E5FF0220FFF7E2FFBDE80840FC
:109390000320FFF7DDBFC20710B504460CD54FF020
:1093A000A0430322C3F83427C3F83827C3F83C2767
:1093B000C3F84027FFF7E0FFA3070AD54FF0A0430B
:1093C0000C22C3F82C27C3F83027C3F86027C3F852
:1093D000642710BD38B5074C051E04F1080318BFFB
:1093E0001C4623682BB11A6822605B6828469847A0
:1093F000F7E738BD342A002020B9054B01225A7006
:10940000FFF7E8BF012802D1014A9070F8E77047E2
:109410002C2A002020B9034B01225A70FFF7DABF33
:10942000704700BF2C2A002038B50E4C2378B3B902
:109430000D486360A3602361E36000F0E7F8054630
:1094400002F08CFA08B900F0EDF801232370074B05
:10945000D3F800340BB10123A370284638BD85250D
:10946000F5E700BF2C2A0020F9930200000001401C
:1094700037B50D4C00230DF107008DF80730FFF7CD
:109480004BF8E368013BE360E36833B9074BD3F87B
:10949000005415B900F0D8F8A5709DF80700FFF743
:1094A0005FF803B030BD00BF2C2A0020000001404F
:1094B000012813B50CD0032820D038B9134B012252
:1094C000C3F88020BFF34F8FBFF36F8F02B010BD82
:1094D0000F4C00230DF107008DF80730FFF71CF843
:1094E00023780BB9FFF7A0FFE3689DF8070001336D
:1094F000E3600123A370FFF733F8E7E700F092F889
:1095000002B0BDE81040FFF7B3BF00BF00E100E0CC
:109510002C2A00201FB503788DF800304368019392
:1095200083688DF80830C368054A0393054B684685
:1095300053F8213052F82110984705B05DF804FB2C
:10954000402A0020482A00201FB503788DF80030FB
:109550004368019383688DF80830C368054A039314
:10956000054B684653F8213052F82110984705B052
:109570005DF804FB402A0020482A0020F0B5194B72
:1095800090F800C0DFF86CE043F82C20164B16462C
:109590000A6943F82C204B7F0EF80C300C46074626
:1095A0000FCC89B06D460FC594E80F0085E80F0019
:1095B0003B78CDF810C01EF803304BB1002E0B4A9B
:1095C000694608BF3246381D00F020FE09B0F0BDE4
:1095D000002E074A694608BF324607F10C0000F02A
:1095E000D9FBF3E7482A0020402A00201595020005
:1095F00049950200502A002000F18040002382B0EB
:10960000036003680193019B02B07047044A137919
:1096100023B901211060918018467047852070475A
:10962000542A0020074B1A68D20704D4C02283F8BA
:10963000002301221A604FF080430122C3F818254D
:10964000704700BF00E100E04FF0804208B5022300
:10965000C2F808334FF48270FFF7CEFF0123D360C6
:10966000D2F81834DB03FBD408BD00004FF0804172
:1096700010B5D1F8003163B14FF48070FFF7BCFF33
:109680000D4B58790122C1F8082310B95A711B6893
:1096900098474FF08042D2F8043163B14FF48270A2
:1096A000FFF7AAFF0223C2F80833034BBDE81040BE
:1096B0001B680120184710BD542A002000F180408B
:1096C00000F5C040002382B0036003680193019B52
:1096D00002B0704703681F2B83BF03F01F030360B2
:1096E00001484FF0A04070470003005007B50190BB
:1096F00001A8FFF7EFFF019B00EB8300D0F80037D4
:1097000023F44033C0F80037D0F8003743EA014172
:10971000C0F8001703B05DF804FB0000054B4FF0E4
:10972000FF32072843F8202084BFC01880F8582053
:10973000704700BF5C2A002038B51E4C94F86A3090
:10974000ABBB4FF6FF71FF205A09012A0CBF0A4636
:109750004FF0FF3203F01F05EA40D20748BFE2187E
:1097600003F1010348BF82F83000302BECD1002117
:10977000C8B20131FFF7D2FF0C29F9D1062200212E
:109780000D4802F0DFFA0D4BC02283F80623402279
:109790001A604FF4BE70FFF791FF094B4FF0004283
:1097A000C3F80423012384F86A30002038BD082060
:1097B000FCE700BF5C2A0020C02A002000E100E096
:1097C00000600040034B93F86A00003818BF012086
:1097D000704700BF5C2A0020F7B53D4F3B18044698
:1097E00093F93030002B71DA8B78C3F34003002BF0
:1097F0000BBF082500250C200820854202D104203B
:1098000003B0F0BD57F82560013647D138196EB264
:1098100047F8252080F8306013B97B1983F8584049
:109820008B785A071AD4D8073AD501A80194FFF7C4
:1098300051FF019B00EB8300D0F8003723F00203B7
:10984000C0F800372348E20804F0070C012303FAAC
:109850000CF310F802C043EA0C03835488780B78A9
:1098600010F0020028D0AD0005F1804505F5C04597
:109870002402D5F8102522F44F3222F44072C5F8A4
:1098800010251B04D5F8102504F47C5403F4403350
:109890001C431443C5F810450020B1E70135ACE77F
:1098A00001A84A780194FFF715FF019B03F5E073C7
:1098B000920040F82320C5E7083E47FA86F797F85C
:1098C000604044EA831387F8603099E7082097E7FF
:1098D0005C2A0020C02A002073B5244D2E180446AF
:1098E00096F93020072A1DDD083A45FA82F595F8E9
:1098F00060309B09032B10D1019001A8FFF7EAFE0D
:10990000019BD0F81015D94001F001010231204629
:1099100002B0BDE87040FFF7E9BE012B0CBF022189
:109920000321F4E7D3B2072B1DD8930003F1804342
:1099300003F5C043D3F8100540F00100C3F810054B
:1099400002F1400040B2800080B2FFF7B7FE51B193
:1099500096F9303055F823302BB1012303FA02F287
:10996000034BC3F8042302B070BD00BF5C2A002083
:10997000006000400E4B034493F93020072A02DDBB
:109980000021FFF7B3BED3B2072B10D8930003F129
:10999000804303F5C043D3F8101521F00101C3F84B
:1099A0001015012303FA02F2024BC3F80823704793
:1099B0005C2A00200060004007B5019001A8FFF775
:1099C00089FE019BD0F81005D84000F0010003B0DB
:1099D0005DF804FB2DE9FF470024CDE90244584D12
:1099E0004FF48072012102F1804303F5C04390B22D
:1099F0001B68012B06D1D5F804330B4202D0FFF7C8
:109A00005DFE0C430432B2F5907F4FEA4101EAD18A
:109A10004B4BD3F87C31012B11D14FF4BE70FFF7C3
:109A20004DFE4FF0A04344F00044D3F820250292AD
:109A3000C3F82025D3F820280392C3F82028E3B2E6
:109A4000D3B1404F00250126344210D0AB0003F1C2
:109A5000804303F5C043D3F81005D3F8101557F829
:109A6000253023B1C1F30141C0F3052098470135EA
:109A7000082D4FEA4606E7D1002C59DA314D324C19
:109A8000324E4FF00008012716F9013B5A1C3CD01A
:109A9000C3F3C20104A801445FFA83F911F8081C5A
:109AA00003F03F0203F0070307FA03F319422CD037
:109AB00001A80192FFF70EFE019B03F5E07350F839
:109AC0002330C3F3014ABAF1020F0CBF0321022174
:109AD0001046FFF70BFE01A80192FFF7FBFD019B6B
:109AE00007FA03F3C0F82035AB1893F9303055F876
:109AF000233053B14FEA9911032904D0BAF1020F70
:109B000019D1012901D11046984708F10108B8F18F
:109B1000040FB9D14FF0A043D3F820250292C3F827
:109B20002025D4F820350393C4F820351343A7D15A
:109B300004B0BDE8F087BAF1030FE6D10229E1E7EE
:109B4000006000405C2A002000030050BC2A002076
:109B5000014B1B68184700BFC82A00200E4B9842D3
:109B600037B50C4602D0002003B030BD00230DF104
:109B700007008DF80730FEF7CFFC084B1D7915B9AB
:109B800001221C601A719DF80700FEF7E9FC002D08
:109B9000E9D01120E8E700BF00200040C82A0020DB
:109BA000034B984201BF034B00221A601A717047A1
:109BB00000200040C82A00200023435082B04358B0
:109BC0000193019B02B070470A4610B54FF48E71A5
:109BD000FFF7F2FF136A9168C95C136A01331362DD
:109BE000C0F81C1510BD8B690A4610B54FF484717E
:109BF00023B9FFF7E1FFD0F8183510BDFFF7DCFF00
:109C0000536AD168D0F81805C854536A01335362B7
:109C1000F3E700001FB501238DF80030044BCDE9B8
:109C20000110D3E900126846904705B05DF804FBC7
:109C3000D02A002030B54D4DD5F804339A0585B0B3
:109C400051D5D5F82431002B4DD04FF492712846D0
:109C5000FFF7B2FF4FF40173C5F80833444B93F894
:109C600029200AB901226A60404902228DF80020A9
:109C7000D1F88024C1F8802403929A690292DA68AC
:109C800001920022C3E906226846D3E900129047F8
:109C90003648D0F81C315BB1354A5169136A994294
:109CA0004DD992F82830002B49D11146FFF78CFF8F
:109CB0002E48D0F84431002B56D04FF4A271FFF754
:109CC0007BFF2B4B93F829200AB1012202609A698D
:109CD000002A49D0586AD96800229A6105B0BDE8C7
:109CE0003040FFF797BFD5F804335B07D0D5D5F8E0
:109CF0000831002BCCD01E4C1C482146FFF773FFC7
:109D0000636AA2699A42C3D1E369E1684BB1A36176
:109D10002369E3600023606AE3616362FFF77AFF0F
:109D2000B6E794F829300BB901236B600F4B4FF461
:109D30000172C3F808230023606AA361EEE70B48B1
:109D40004FF48E71FFF738FF5369002BB0D0516983
:109D50000291002391688DF80030019153616846AB
:109D6000D2E900139847A3E705B030BD00200040BA
:109D7000D02A00201F2886BF00F01F00044B4FF0A0
:109D8000A04300F5E070022243F82020704700BF96
:109D9000000300502DE9F843604D90F804802C2317
:109DA00003FB0853064693F82A300C469146002BD5
:109DB00040F0AF805A490068FFF7D0FE0746002800
:109DC00040F0A9802268531C10D01F2A87BF554934
:109DD00002F01F0313464FF0A0410120984003F505
:109DE000E073C1F80805032041F823006168481CAE
:109DF0000DD01F298BBF01F01F030B4649484FF0C0
:109E0000A04003F5E0734FF0000C40F823C0306829
:109E1000A369C0F8243594F814C0637DBCF1010F28
:109E20004CEA0303C0F86C35C0F81415C0F80C25D3
:109E30002BD1A368591C0DD01F2B8BBF03F01F0221
:109E40001A4638494FF0A04102F5E0724FF0000C7D
:109E500041F822C0E1684A1C13D01F2987BF314A4C
:109E600001F01F0C8C464FF0A0424FF0010E0EFA8D
:109E70000CFE0CF5E07CC2F808E54FF0030E42F84A
:109E80002CE0C0F80815C0F810352C2202FB08F2AF
:109E9000AB18C3F804902369AB50B9F1000F20D080
:109EA0004FF48E71247FFFF787FE4FF4A271306864
:109EB000FFF782FE32681C4BC2F80433130B42F3E7
:109EC00007326101002AC9B21EDB1848841884F8E1
:109ED00000130121520903F01F0301FA03F340F8B4
:109EE000223033680422C3F800252C2303FB0853D7
:109EF0000022C3E9062283F829205A61012283F84F
:109F00002A203846BDE8F883094A03F00F03D154EC
:109F1000E7E70827F5E71127F3E700BFD02A00207D
:109F2000359C0200000300508000020000E100E0C8
:109F300014ED00E02DE9F04103680579284C00227A
:109F4000C3F800252C2202FB054201465268A2B14B
:109F5000244AC3F808231A0B43F30733002B0CDB06
:109F600002F01F005B090122824020331E4840F8A6
:109F70002320BFF34F8FBFF36F8F0B68D3F80C050F
:109F8000D3F81485D3F80865D3F810754FF0FF3275
:109F90009042C3F81425C3F80C25C3F80825C3F86C
:109FA000102501D0FFF7E6FEB8F1FF3F02D0404692
:109FB000FFF7E0FE7A1C02D03846FFF7DBFE731C89
:109FC00002D03046FFF7D6FE0868FFF7E9FD2C23E4
:109FD00003FB0544002384F82A306360BDE8F08168
:109FE000D02A00208402020000E100E00279044B44
:109FF0002C2101FB02335869003818BF012070473B
:10A00000D02A00202DE9F84F064690F804808946B2
:10A010009246FFF7EBFF044600283CD1204F2C2549
:10A0200008FB057B4FF48E71CBF814A0CBF8089099
:10A03000CBF820008BF828003068FFF7BDFD3068B2
:10A04000012383605946FFF7BFFDDBF804305D460E
:10A050001BBB3068DBF814402B6A9C4211D8336874
:10A06000D3F81C21002AFBD00122DA6000202C2327
:10A0700003FB087700237B61BDE8F88F95F8283053
:10A080003BB9D0F81C31002BF8D05946FFF79CFDA6
:10A09000E2E70F20EBE71120EEE72046ECE700BFF8
:10A0A000D02A00200023435082B043580193019BE3
:10A0B00002B070471FB501238DF80030044BCDE985
:10A0C0000110D3E900126846904705B05DF804FB23
:10A0D000FC2A00207FB5434AD2F82461002E60D0CC
:10A0E00010464FF49271FFF7DDFF02238DF8003028
:10A0F000D2F88034C2F880340393D2F83C3502930E
:10A10000394BDA6801920022C3E906226846D3E996
:10A11000001290473348D0F8443173B14FF4A27124
:10A12000FFF7C0FF304B9A693AB10022C3E906221B
:10A13000D968D0F83C05FFF7BDFF2A48D0F8203198
:10A14000ABB14FF49071FFF7ADFF0123C360264B15
:10A150005A6962B1D0F84C150291002299688DF8C5
:10A16000002001915A616846D3E9001290471D48CA
:10A17000D0F858319BB14FF4AC71FFF793FF1A4BF5
:10A180005A6962B1D0F84C150291002299688DF895
:10A19000002001915A616846D3E90012904704B04B
:10A1A00070BDD2F81031002BB4D04FF48871104636
:10A1B000FFF778FF0C4BD2F83C0599698842A9D18A
:10A1C000DC69D96864B1D2F8005225F02005C2F8E4
:10A1D00000521A699C61DA60DE61FFF76BFF99E754
:10A1E0009C61FAE700200040FC2A00201F2886BF5F
:10A1F00000F01F00044B4FF0A04300F5E070022276
:10A2000043F82020704700BF000300502DE9F843B9
:10A21000664E90F80480242303FB0863044693F8F9
:10A2200020300D469146002B40F0BC80604900680C
:10A23000FFF794FC0746002840F0B68029684B1CC5
:10A2400010D01F2987BF5B4A01F01F030B464FF058
:10A25000A0420120984003F5E073C2F808050320EE
:10A2600042F823006A68501C0DD01F2A8BBF02F0F1
:10A270001F0313464F484FF0A04003F5E0734FF023
:10A28000000C40F823C02068AB69C0F8243595F86D
:10A2900014C06B7DBCF1010F4CEA0303C0F86C35B0
:10A2A000C0F80C15C0F814252BD1AB68591C0DD083
:10A2B0001F2B8BBF03F01F021A463E494FF0A041EF
:10A2C00002F5E0724FF0000C41F822C0E9684A1C28
:10A2D00013D01F2987BF374A01F01F0C8C464FF05F
:10A2E000A0424FF0010E0EFA0CFE0CF5E07CC2F815
:10A2F00008E54FF0030E42F82CE0C0F80815C0F84E
:10A300001035242202FB08F2B318C3F804902B691D
:10A31000B350B9F1000F2FD04FF488712A7FFFF7A7
:10A32000C1FE20684FF49071FFF7BCFE20684FF427
:10A330009271FFF7B7FE20684FF4A271FFF7B2FEEB
:10A340004FF4AC712068FFF7ADFE23681A49C3F8DB
:10A350000413190B43F307335201002BD2B21CDB59
:10A360001648C51885F8002301225B0901F01F017A
:10A3700002FA01F140F8231023680822C3F80025EF
:10A38000242303FB08660023C6E906337361012317
:10A3900086F820303846BDE8F883094B01F00F01FC
:10A3A0005A54E9E70827F5E71127F3E7FC2A0020CC
:10A3B000D5A00200000300501003420000E100E0BD
:10A3C00014ED00E02DE9F0413D4D067904682423A9
:10A3D00003FB065302465B68ABB13A4BC4F8083343
:10A3E00044F30733002B4FEA14310CDB01F01F005C
:10A3F0005B09012181402033334840F82310BFF32B
:10A400004F8FBFF36F8FD4F8003223F02003C4F8CE
:10A410000032242303FB06539B6933B14FF4A2712E
:10A420002046FFF73FFE012363604FF4AC712046E6
:10A43000FFF738FE0123E360242303FB0653D4F81F
:10A4400058110029FBD0996919B1D4F84411002999
:10A45000F5D00023C4F800351368D3F80C05D3F801
:10A460001485D3F80815D3F810754FF0FF329042D9
:10A47000C3F80C25C3F81425C3F80825C3F8102524
:10A4800001D0FFF7B3FEB8F1FF3F02D04046FFF71F
:10A49000ADFE7A1C02D03846FFF7A8FE4B1C02D056
:10A4A0000846FFF7A3FE2046FFF77AFB242303FBB1
:10A4B0000655002385F820306B60BDE8F08100BFB1
:10A4C000FC2A00201003420000E100E00279044B66
:10A4D000242101FB02335869003818BF012070475E
:10A4E000FC2A002001F06043B3F1005F2DE9F04742
:10A4F0000646884692463BD190F80490FFF7E6FF67
:10A500000446002836D11D4F3068242505FB097507
:10A510004FF49071C5F814A0C5F80880FFF7C2FD8C
:10A520004FF4AC713068FFF7BDFD33686A69A96804
:10A53000C3F84415C3F8482501229A606A68DAB95D
:10A54000D3F82021D3F858011AB90028F8D00F20E9
:10A5500007E00028FBD10122DA60D3F85821002A55
:10A56000FBD0242303FB097700237B61BDE8F08740
:10A570001020FBE71120F9E72046F7E7FC2A00202E
:10A5800072DF704773DF704776DF704777DF7047A1
:10A590007ADF70477CDF70477FDF70478FDF70475F
:10A5A000B1DF7047FDF75CBD08B5064B0121187897
:10A5B000FFF7E8FF08B1FDF753FDBDE808400020B4
:10A5C000FEF7B2BE642300200388212B13B5044696
:10A5D00058D007D8112B32D0132B4BD0102B0CD0C6
:10A5E00002B010BD522B5BD0562B01D03B2BF7D1C4
:10A5F000A0881321FFF7C8FF1AE02D4B2D482E49E4
:10A60000C01AC008000440F00300FDF71DFA012045
:10A61000FEF78AFE0020FEF79BFE284BA188284803
:10A62000198001F00BF808B1FDF71AFDFDF7D6FC13
:10A630000028D5D002B0BDE81040FDF711BD1C4B7D
:10A640001C482049C01AC008000440F00300FDF770
:10A65000FBF90120FEF77CFE184B4FF6FF721A80C3
:10A66000FDF7D2FC08B1FDF7FBFC02B0BDE81040DD
:10A67000FFF79ABF114800231A4685210088FFF78B
:10A680008BFFD5E7002380888DF8043001A98DF871
:10A690000530FFF783FF0028A2D0FDF7E1FC9FE71C
:10A6A000064800231A4619460088FFF779FFBFE7DE
:10A6B00070BE020098BE0200FEC5020066230020A4
:10A6C0008C2B002008C6020008B503784BB9054B57
:10A6D0003B211888FFF758FF18B1BDE80840FDF787
:10A6E000BFBC08BD662300200B2807B51BD1124B49
:10A6F00012480191C01AC0080004114940F003003B
:10A70000FDF7A2F90F4B019A0F49188801F07EF866
:10A7100030F008020CD043F20202904208D043F21B
:10A720000142904204D003B05DF804EBFDF798BC01
:10A7300003B05DF804FB00BF70BE020098BE0200CB
:10A7400015C6020066230020742B002010B50A4BAA
:10A750000A4CE41AE408240444F0030402203AB149
:10A76000FEF7E2FD06492046BDE81040FDF76CB952
:10A77000FEF7EEFD0349F6E770BE020098BE020048
:10A780002FC6020040C60200FDF76ABC00B54FF4B8
:10A790008041A7B00020FCF7B9FF08B1FDF760FCCD
:10A7A000FCF7F2FE0120FEF7F6FDFDF739FD08B1DA
:10A7B000FDF756FC714840F233320121FDF7B6FB3C
:10A7C00008B1FDF74DFCFEF7EBFB08B1FDF748FCC7
:10A7D00001F086F808B1FDF743FC002317A901201A
:10A7E000179301F009F908B1FDF73AFC17A801F039
:10A7F000B5F908B1FDF734FC112361488DF820301C
:10A8000001F0D3FA5E4982B208A8FFF7C3FE08B18F
:10A81000FDF726FC0822002117A801F093FA502327
:10A82000ADF85C30A023ADF85E300023ADF86030A9
:10A8300017A84FF4C873ADF86230FFF7A9FE08B14E
:10A84000FDF70EFC4F48002100F0E6FD08B1FDF7D2
:10A8500007FC002308934C484C4B179317A900F0B2
:10A86000DBFE08B1FDF7FCFB494B4A48089308A9F9
:10A8700000F05EFF08B1FDF7F3FB41F22353ADF8A2
:10A880000430444B444C9B7C8DF806303C22002124
:10A8900008A801F057FA02238DF820303C2240F23C
:10A8A0000163002117A8ADF8223001F04BFA2246CF
:10A8B0000123ADF86C3052F8041B01AB08A81C93BF
:10A8C00000F0F4F808B1FDF7CBFB344AA16817A8F3
:10A8D00000F0ECF808B1FDF7C3FB1822002102A834
:10A8E00001F030FA00230122ADF8143003934FF445
:10A8F00080738DF80820ADF81C3027492848402384
:10A9000002AA0493FFF73CFE08B1FDF7A9FB1C2245
:10A91000002117A801F016FA00234FF4A022CDE978
:10A920001732ADF86A304FF4A0328DF86C301D4B01
:10A9300019921C9303221C4B8DF8682017A81D93B5
:10A9400000F07EFB08B1FDF78BFB184B1848194946
:10A95000C01AC008000440F00300FDF775F86FF05E
:10A96000130200210120FFF711FEFFF71DFEFCF787
:10A970001FFF0028FBD1FEF729FBF8E74C2300203E
:10A9800052C60200602B00208C2B0020A5A50200DF
:10A990004DA70200742B00205423002060230020C8
:10A9A00064230020C9A6020089A7020070BE02002D
:10A9B00098BE020060C602006DDF704779DF704705
:10A9C0007DDF704764DF70472DE9F04F85B00025CB
:10A9D0000E9CBDF83CB0B4F800A00191074690462B
:10A9E0001E46A9463A884A450DDC45B12388013BFD
:10A9F000A3EB0A039BB2FF2B3AD806F80A300020DB
:10AA000005B0BDE8F08F7A6852F829000390002263
:10AA10000DF10B0103A8FFF7D5FF0028F0D19DF839
:10AA20000B20424521D12288002D14BF0020022096
:10AA300002EB0801014459451ADC3DB9013292B2DA
:10AA4000019B2280B35422880132228022880DF19A
:10AA50000B01324403A8FFF7B5FF0028D0D12188AD
:10AA60009DF80B200A442280012509F10109B9E76C
:10AA70000C20C5E72DE9F341089FBDF82480154659
:10AA8000CDE90078022204461E46FFF79DFF50B92B
:10AA90003346102229462046CDE9087802B0BDE8A9
:10AAA000F041FFF791BF02B0BDE8F0812DE9F04F12
:10AAB00000231788138090F82D3085B006460D4688
:10AAC000144653B3082F01D80C2027E102A8FFF742
:10AAD00073FF002840F0228123880822EA5423884B
:10AAE00001339BB21B222380EA542088013080B2BC
:10AAF000208006220DF10901284401F0FAF823888C
:10AB00009DF8082006339BB212F0FE0218BF012206
:10AB10002380EA54238801332380B378FBB1238850
:10AB20000433BB42D0D802A8FFF748FF002840F00A
:10AB3000F58023880322EA54238801339BB219222B
:10AB40002380EA542388BDF8082001339BB2E9181A
:10AB50002380EA54120A4A70238802332380F27851
:10AB60009AB12388D91CB942AED80221E95423886E
:10AB700001339BB201212380E95423880B449BB20B
:10AB80002380EA5423880B4423807268AAB1238867
:10AB9000D91CB94298D8022192F90020E95423889F
:10ABA00001339BB20A212380E954238801339BB2ED
:10ABB0002380EA542388013323803389002B40F01B
:10ABC000A180338A5BB1CDE900472B4607220321E0
:10ABD00006F11000FFF74EFF002840F09F80338BF6
:10ABE0005BB1CDE900472B461522142106F1180070
:10ABF000FFF740FF002840F09180326A002A40F0C1
:10AC00009080D6F82480B8F1000F30D0B8F8043026
:10AC10002188981C8A1C0244BA423FF655AFFE2890
:10AC20003FF652AF03336B54238801339BB2FF22AC
:10AC30002380EA54238801339BB22380B8F8002094
:10AC4000EA54E918120A4A702088023080B2208043
:10AC5000B8F804205AB1D8F8081000296BD028445D
:10AC600001F047F82388B8F804201344238096F8AD
:10AC70002C30002B40F09880307800284ED033885C
:10AC8000012B58D0228802F1020CBC453FF61CAFC4
:10AC9000012805D17378023313449F42FFF414AFA7
:10ACA000023FBF1ABFB202A905EB0C00ADF8087055
:10ACB000FFF786FE90BB3178BDF80830022900F01E
:10ACC000B98072789A4202D39F4280F0B180012904
:10ACD00040F0B280974293B2C0F0AE80ADF8083039
:10ACE0000821BDF80830FE2B3FF6EEAE2288013376
:10ACF000AB542288013292B22280A9542288134494
:10AD000023800BE0CDE900472B460622022106F105
:10AD10000800FFF7AFFE00283FF453AF05B0BDE8D1
:10AD2000F08FB4F800C00CF10603BB423FF6CCAE86
:10AD30001188052901D80720F0E76FF4486E01EB70
:10AD40000E039BB24FF27D3E7345F4D95388052B19
:10AD5000F1D96FF44860181880B27045EBD94FF6FE
:10AD6000FF70814201D09942E5D8052305F80C30E7
:10AD7000238801339BB212212380E95423880133B5
:10AD80009BB223801188E954E818090A417023888E
:10AD900002339BB223805288EA54E918120A4A709F
:10ADA0002388023323802CE7B36A002BC3D04FF0F3
:10ADB00000084FF00C0A4FF0160BB16A5FFA88F2E8
:10ADC0000AFB02F201EB0209B9F80430981CFE28D4
:10ADD0003FF67AAE208803332B54238801339BB28D
:10ADE000238005F803B0238801339BB223808A5A5D
:10ADF000EA54E918120A4A702088023080B2208092
:10AE0000B9F804205AB1D9F80810002993D0284481
:10AE100000F06FFF2388B9F804201344238096F8CC
:10AE20002C2008F101085FFA88F39A42C5D823E77D
:10AE3000092156E79F42FBD2ADF8087050E775DF55
:10AE4000704776DF70477ADF70477BDF704700001E
:10AE5000034B1A8882420CBF18460020704700BF7F
:10AE6000B42B0020024B9B6903B11847704700BF09
:10AE7000982B002073B585B22846FFF7E9FF0446FA
:10AE800038B3174E027A337B9A420CD200F10A0192
:10AE90002846FFF7D4FFF0B111281AD002B0BDE860
:10AEA0007040FFF7DFBF00230372337C43B13B21C7
:10AEB0002846FFF7C6FF30F0080301D0FFF7D2FFA6
:10AEC000736933B100228DF80420ADF8065001A853
:10AED000984702B070BD237A01332372F9E700BFAF
:10AEE000982B002037B50B46497A0F4A79B9D2E939
:10AEF00001141D7A0246002D18BF21465868FDF73F
:10AF0000D3F978B103B0BDE83040FFF7ABBF002103
:10AF10001972536933B10122ADF806008DF804208F
:10AF200001A8984703B030BD982B00204B880288B9
:10AF30009A4212D842889A420FD380888B8840F276
:10AF4000F311884294BF021A421A9A4205D8084463
:10AF5000984234BF00200120704700207047000055
:10AF60000388122B70B5014659D004D8102B1ED07F
:10AF7000112B44D070BD502BFCD12F4BC288DB89E4
:10AF80009A42F7D1038A022BF4D186883046FFF724
:10AF90005FFF05460028EDD001F1120000F045F9F1
:10AFA00038BB6868FDF7AEF90028E3D009E0C37B41
:10AFB000012BDFD14FF6FF70FFF74AFF054620B99E
:10AFC0000420BDE87040FFF74DBF1C4A8E88068004
:10AFD000002303721368C0F80A305368C0F80E30BB
:10AFE00010310A30FFF7A2FF134B6872DB89002B88
:10AFF000C0D129463046BDE87040FFF773BF808856
:10B00000FFF726FF04460028B4D04068FDF77AF920
:10B0100008B1FFF727FF4FF6FF732380AAE7868862
:10B020003046FFF715FF05460028A3D008310A3047
:10B03000FFF77CFF6872DCE7982B0020C82B00200C
:10B04000F8B5064648B305460FCD154F3C460FC42C
:10B0500095E8070084E807003068124C3C60B0B106
:10B06000FFF7F1FEC0B9326813682360536863606C
:10B070000D480E4A4FF6FF7303800D4B40F8043F16
:10B080000021FDF7FFF8002818BF032004E0204648
:10B09000FFF7DBFE0028EBD0F8BD0E20FCE700BF79
:10B0A000982B0020C82B0020B42B002075AE020086
:10B0B000D02B00200AB1FDF72FBCFDF736BC73B5CD
:10B0C0000191019C06466CB100252C46294601A839
:10B0D000FDF735FC18B106EB440301349D800135C2
:10B0E000142DF3D13046346002B070BD2DE9F04725
:10B0F00003888488103B8CB005460A2B21D8DFE8F2
:10B1000003F0064020202020202020654700DFF8A3
:10B11000E880D8F80830DB430093D8F8041068467C
:10B12000FDF739FC009901A8FFF7C9FF0DF10809E7
:10B130000027019B9F4207D3132C12D90420FCF750
:10B140008FFF0CB0BDE8F08739F802AB002601365E
:10B15000514608EB8600FDF7E8FB1E2EF7D10137BC
:10B16000E7E71F482146FDF7D7FB1E482146FDF7BC
:10B17000D3FBEB7B022BE4D11B482146FDF7CCFB34
:10B18000DFE7174821460CB0BDE8F047FDF7CDBB1F
:10B19000027A16483F2A4FEA1215214694BF002230
:10B1A0000122FFF787FF022D94BF002201221048E1
:10B1B0002146FFF77FFF012D0E4894BF0022012298
:10B1C00021460CB0BDE8F047FFF774BF037A002BAF
:10B1D000B7D1427A0548C2F3C0022146F1E700BF69
:10B1E000F82B0020F42B0020FC2B0020082C002042
:10B1F000042C0020002C0020F02B0020AADF704738
:10B20000002301380B70042806D8DFE800F003069D
:10B21000080A0C0011230B7070472123FBE7312330
:10B22000F9E71223F7E72223F5E7008800F0010091
:10B230007047F0B58B7891B0012B0C4638BF0123D5
:10B240008DF80E3005460B88ADF80C3000211646FF
:10B250006846032200F076FD607C6946FFF7D0FF68
:10B26000A07C0DF10101FFF7CBFFE27B237B217D69
:10B2700043EAC203227C43EA02139DF8022000291C
:10B2800022F0190203F0190314BF02210121134314
:10B2900061F342031C22002109A88DF8023000F05E
:10B2A00051FD637B13F0300F15D002AF0322002154
:10B2B000384600F047FDE07C0DF10901FFF7A0FFE3
:10B2C00011238DF808309DF80A300E97012262F3A1
:10B2D00042038DF80A30637B8DF824301422A37B5F
:10B2E0008DF82530002104A800F02CFD03AB049359
:10B2F000A388ADF81C30A368CDF814D01BB1E28848
:10B30000ADF818200893A369002B31D001AF0322B8
:10B310000021384600F016FDA3691A88ADF82C20EC
:10B320005A88ADF82E205A680D97187B0A92394634
:10B33000FFF766FFA3690DF10501587BFFF760FF7A
:10B34000A3699A7A197A41EAC201DA7A9B7B41EAC7
:10B3500002119DF80620002B01F0190122F01902BC
:10B3600014BF02230123114363F342018DF8061039
:10B37000E36903B10C93334604AA09A92846FFF7F1
:10B380003DFF11B0F0BD90DF7047A5DF7047B5DF1E
:10B39000704700007FB50023ADF80810ADF80A1023
:10B3A0006A4602A90646ADF80C30ADF80E3000939F
:10B3B000ADF80430FFF7E7FF054600B3114B124C20
:10B3C000E41AE408FDF78EFE240444F00104034669
:10B3D0000E4932462046FCF744FBBDF80020BDF87C
:10B3E000023052EA030103D009492046FCF739FB39
:10B3F000BDF804201AB107492046FCF729FB28466E
:10B4000004B070BD70BE0200B8BE020078C6020073
:10B41000C2C6020001C7020078B14FF017130360E3
:10B420001B2303711723C380038141F61B320023C2
:10B43000016143818281184670470E2070470000E9
:10B4400013B5034680880C46B8B91A88242A00F040
:10B450009B8014D8112A74D0232A00F0A680102AC9
:10B460003ED0A37A4BB1E1880020FFF78EFF002881
:10B4700040F0A1804FF48073638102B010BD3A2A7E
:10B4800067D0552AEDD1DB88C988A072172B38BF49
:10B4900017238B4228BF0B462381FFF778FF60B14B
:10B4A000FDF720FE4D4B4E4902464E481B1ADB0865
:10B4B0001B0443F00100FCF7CBFAE27A002AD0D15A
:10B4C0002369002BCDD040F67721ADF802202289E8
:10B4D000ADF80010ADF80420694620469847C0E753
:10B4E000DB7B0A790A73012B13D0022B14D0E1887D
:10B4F00023898B4205D20020FFF747FF70B9012353
:10B50000E372217B637B8B42ABD20020FFF742FFCB
:10B51000A7E70B88E380EAE74B88FBE7112802D115
:10B520000123A372EDE7FDF7DDFD2C4B2E4902460A
:10B530002C481B1ADB081B0443F00100FCF788FAB7
:10B54000DFE71723CB800B8141F61B3348818B81CA
:10B5500087E75B89CA88934228BF1346172B0A697D
:10B5600038BF17230B8162B1C97A51B140F67721F8
:10B57000ADF80010ADF80200ADF804306946204681
:10B580009047002363816CE71A7A0B694A73002B9A
:10B590003FF467AF4DF67A218DF80500ADF8001045
:10B5A000ADF802008DF8042096E7197A237B9942C2
:10B5B00028BF1946AAE711283FF45FAFFDF792FDB7
:10B5C000064B0949024607481B1ADB081B0443F0D7
:10B5D000010002B0BDE81040FCF73ABAB8BE020064
:10B5E00088C7020070BE020057C70200B0DF704774
:10B5F00066DF704710B5002104464088FFF7F8FF6A
:10B60000034608B9237210BD112801D10123F9E7BF
:10B610006368BDE81040184760B159B10378DE2B6C
:10B620000AD00B684360DE2303704FF6FF7343803C
:10B63000002070470E2070470820704728B103781B
:10B64000DE2B04D14180002070470E207047082077
:10B650007047F0B5054685B00C46002942D0002859
:10B6600040D00B78DE2B3DD182884B889A4204D1A2
:10B670000B7A13B10846FFF7BDFF2B88112B33D08F
:10B68000512B0FD0012B2DD12B7A012B2AD1A98838
:10B690006288914226D12046237205B0BDE8F04071
:10B6A000FFF7A8BFAE886388B3421BD1AF79022FE2
:10B6B00018D1AD7B2B1F022B14D800211022684615
:10B6C00000F040FB052D18BF4FF4C07369463046AB
:10B6D00018BFADF804308DF80070FFF787FF08B190
:10B6E0006368984705B0F0BD6388AA889A4204BF92
:10B6F0004FF6FF736380F5E7A8DF7047AEDF704752
:10B7000062DF70470288502A10B40DD1C4884A887D
:10B71000944209D1028A012A06D14B6923B1827C65
:10B720005DF8044B808818475DF8044B70470000B3
:10B73000F0B50B6843618FB0334B02AA044603F1A6
:10B740001007164618685968154603C50833BB42EA
:10B750002A46F7D104F112013046FFF7D1FF002845
:10B760004FD1A37C8DF80630224641F2235301A924
:10B770000120ADF80430FFF7BFFF002841D101469A
:10B78000202206A800F0DEFA41F22453ADF818306A
:10B79000A37C8DF81A309DF82530224623F0120341
:10B7A00001254FF0011643F0120332F80A0B0796F9
:10B7B00006A98DF825308DF829508DF82B50FFF70C
:10B7C00038FDF0B90146202206A800F0BBFA41F28C
:10B7D0002553ADF81830A37C8DF81A309DF825302C
:10B7E0000796224623F00A0343F00A0332F8020BBD
:10B7F0008DF8253006A98DF829508DF82A50FFF7CD
:10B8000018FD0FB0F0BD00BFC4C7020070B588B00E
:10B810000D468DF807201022044601260DEB02008C
:10B820000021ADF80E6000F08DFA6B89ADF8103094
:10B830000DF10703079304A90DF10E0320468DF8BF
:10B8400012600693FFF75AFF08B070BD10DF704713
:10B8500013B5044609496846FDF7E9FB019808B9A4
:10B8600002B010BDD0E900212046904718B16846CB
:10B87000FDF7E7FBF2E71120F2E700BFE0C70200A7
:10B8800013B5044607496846FDF7D1FB019B0BB988
:10B8900002B010BD2046D3E9002190476846FDF76D
:10B8A000D0FBF3E7F8C702000B4991F816335A09A9
:10B8B000EC231341DB0706D5084B9A683AB94FF4DD
:10B8C00080030B60704742F20200FCF7C9BB1A68A4
:10B8D00042F480021A60704700E100E0042A002070
:10B8E000F7B5194F3C7864BB184E012520463570DA
:10B8F000FFF7AEFF112821D02046FFF7C1FF144B00
:10B900008DF80340186801900DF10300FCF704FE68
:10B91000104901A8FFF79AFF0446B0FA80F04009E9
:10B9200038709DF80300FCF71BFE3CB90A4B3470DD
:10B930001C70FFF7B9FF2846FFF7A2FF204603B0AF
:10B94000F0BD0824FAE700BF6D2C00206C2C00200D
:10B95000DCC702007D8002006E2C0020014B1878AD
:10B96000704700BF6D2C002007B508496846FDF7F9
:10B970005EFB019B13B903B05DF804FBD3E9002023
:10B9800090476846FDF75DFBF3E700BFECC7020098
:10B99000FFF7EABF60DF704769DF704761DF70471C
:10B9A00030B5134B1B7891B0FBB1124D34240DF11F
:10B9B000020103A8ADF80240FFF7F0FF70B9294675
:10B9C00001A8FDF734FB029B002BF0D003A8D3E9BC
:10B9D0000021904701A8FDF734FBF4E7052804D0C7
:10B9E00011B0BDE83040FCF73BBB11B030BD00BF2B
:10B9F0006F2C00203CCA020030B5054685B00C46CD
:10BA0000002900F099804D4B0B600C22002101A809
:10BA100000F098F901238DF8063022688DF8045063
:10BA2000062301A92020ADF80830FFF7B5FF60B16B
:10BA3000FDF758FB424B4349024643481B1ADB08BB
:10BA40001B0443F00100FCF703F80C22002101A8BD
:10BA500000F078F901238DF805302268002301A950
:10BA60004020ADF80630FFF797FF60B1FDF73AFBD5
:10BA7000334B3649024634481B1ADB081B0443F09B
:10BA80000100FBF7E5FF0C22002101A800F05AF9A4
:10BA90000A2322688DF8043001A90120FFF77CFFFA
:10BAA00060B1FDF71FFB264B2949024626481B1AA9
:10BAB000DB081B0443F00100FBF7CAFF0C22002146
:10BAC00001A800F03FF94FF4B0632268019301A987
:10BAD000A120FFF761FF60B1FDF704FB184B1D4982
:10BAE000024619481B1ADB081B0443F00100FBF750
:10BAF000AFFF0C22002101A800F024F99DF80430CA
:10BB000022686FF3000301A9A0208DF80430FFF72D
:10BB100043FF034668B1FDF7E5FA094B0E490246BB
:10BB200009481B1ADB081B0443F00100FBF790FFD8
:10BB30000023184605B030BD0E23FAE7002300208D
:10BB4000C8BE020004C8020070BE02004AC802005B
:10BB500096C80200E2C8020033C9020073B5054668
:10BB60000668FFF717FF2B68B34204461DD91A4831
:10BB70001A4B1B491B1ADB081B0443F002000190FF
:10BB8000FBF762FF2B68174901983246FBF769FF04
:10BB90004FF080532A68D3F80C31134901989B0267
:10BBA00003F100539A1AFBF753FF2CB90F4B0122F4
:10BBB0001A70204602B070BD2046FDF793FA074B7D
:10BBC0000B49024604481B1ADB081B0443F0010022
:10BBD000FBF73EFFEDE700BF70BE0200C8BE0200EB
:10BBE00086C90200B5C90200E6C902006F2C002018
:10BBF00010CA02004BDF70471FB50E4C01A8FFF7BB
:10BC0000F9FF70B9214602A8FDF711FA039B002B3A
:10BC1000F4D00198D3E90021904702A8FDF711FA6A
:10BC2000F4E7052804D004B0BDE81040FCF718BACA
:10BC300004B010BD54CA02007F2805D8034B185C1D
:10BC4000034B5B5C18407047002070476CCA0200D1
:10BC5000ECCA0200A0F16103192B98BF203870478D
:10BC6000A0F14103192B98BF203070477F2805D8D9
:10BC7000034B185C034B5B5C184070470020704717
:10BC80006CCA0200ECCA0200A0F16103192B98BF34
:10BC900020387047A0F14103192B98BF203070471E
:10BCA0007F299ABF017001206FF02E0070475AB1B2
:10BCB0000A787F2A0AD800B1026000211960596011
:10BCC000501A18BF01207047002070476FF02E00F7
:10BCD0007047000008B5034B5B689B681B6898477A
:10BCE00008BD00BF6823002008B50921FFF7F2FF57
:10BCF00008BD844640EA010313F0030F18D18446BF
:10BD0000202A0BD32DE9F007B1E8F807A0E8F807DF
:10BD1000A2F12002202AF7D2BDE8F007042A07D3B7
:10BD200051F8043B40F8043BA2F10402042AF7D284
:10BD3000002A05D011F8013B00F8013B013AF9D186
:10BD4000604670478446002A2DD010F0030F04D0BF
:10BD500000F8011B013A26D0F7E7C9B241EA0121F8
:10BD600041EA0141202A12D3A2F120022DE9F00379
:10BD70000B460C460D460E460F4688468946A0E8FF
:10BD8000FA03203AFBD2BDE8F00320320BD0042A9C
:10BD900005D340F8041B043A05D0042AF9D200F870
:10BDA000011B013AFBD16046704700F1010110F020
:10BDB000030F11D010F8012B002A23D010F0030F2D
:10BDC0000AD010F8012B002A1CD010F0030F03D06A
:10BDD00010F8012B002A15D02DE970004FF0013228
:10BDE0004FF0803350F8044BA4EB020525EA04051C
:10BDF0001D4000D1F6E7A0F1040070BC10F8012B43
:0CBE0000002AFBD1A0EB010070470000FD
:08BE0C00159402000000000083
:10BE1400EDB002000000000041B40200602B0020DD
:10BE240061AF02000000000053B602008C2B00201A
:10BE340005B70200742B0020C9A502000000000011
:08BE4400B194020000000000AF
:10BE4C00A1B9020000000000F9BB020000000000D4
:10BE5C00C02300208824002090240020C823002028
:04BE6C0018000000BA
:10BE7000E2C5020000000000E8C50200000000006A
:10BE8000EFC5020000000000F3C502000000000042
:10BE9000F8C502000000000046BF020000000303D6
:10BEA0001CC002000000000045C0020000000000AD
:10BEB000DCC5020000000000B7C702000000030359
:10BEC000D4C70200000003032DCA020000000303D0
:10BED00048CA020000000303B6C0020000000000D0
:08BEE000CCC0020000000000CC
:10BEE80018BF02000000000024BF02001423002035
:10BEF800FFFFFFFFFFFFFFFFFFFFFFFFFFFFFFFF4A
:10BF080000000000000000000000D601060100004B
:10BF1800F174020055750200A17402007561727413
:10BF28005F6C6F675F6261636B656E64004261633B
:10BF38006B656E647320666C757368656400617008
:10BF480070000000B02800207F0000003029002089
:10BF58001B5B313B33316D0025734C6F6773206475
:10BF6800726F70706564202825642925730D0A0096
:10BF78001B5B306D002573003C25733E2025733A0A
:10BF88002000202530327800202020007C00256306
:10BF9800001B5B313B33306D001B5B313B33326D33
:10BFA800001B5B313B33336D001B5B313B33346D1E
:10BFB800001B5B313B33356D001B5B313B33366D0A
:10BFC800001B5B313B33376D007761726E696E67BA
:10BFD80000696E666F0064656275670078BF02006D
:10BFE80099BF020058BF0200A1BF0200A9BF02000A
:10BFF800B1BF0200B9BF0200C1BF0200C9BF020041
:10C008000000000032C00200D1BF0200D9BF020008
:10C01800DEBF02006170705F627574746F6E00003D
:10C0280020230020466174616C206572726F720073
:10C0380053797374656D20726573657400617070EF
:10C048005F74696D65720000010006000000000061
:10C058007C290020E980020052544320696E7374E1
:10C06800616E636520616C726561647920696E69CF
:10C078007469616C697A65642E005254433A206988
:10C088006E697469616C697A65642E00000000004D
:10C0980000000000000000000338FDD87047303170
:10C0A8003233343536373839414243444546707760
:10C0B800725F6D676D74000014BE020014BE02004A
:10C0C80004000000736F72746C697374004E5246FA
:10C0D8005F53554343455353004E52465F455252B2
:10C0E8004F525F5356435F48414E444C45525F4D53
:10C0F800495353494E47004E52465F4552524F529C
:10C108005F534F46544445564943455F4E4F545F2D
:10C11800454E41424C4544004E52465F4552524FAF
:10C12800525F494E5445524E414C004E52465F456F
:10C1380052524F525F4E4F5F4D454D004E52465F33
:10C148004552524F525F4E4F545F464F554E440032
:10C158004E52465F4552524F525F4E4F545F5355B1
:10C1680050504F52544544004E52465F4552524F2C
:10C17800525F494E56414C49445F504152414D002F
:10C188004E52465F4552524F525F494E56414C49B6
:10C19800445F5354415445004E52465F4552524FF6
:10C1A800525F494E56414C49445F4C454E475448AE
:10C1B800004E52465F4552524F525F494E56414CCF
:10C1C80049445F464C414753004E52465F455252E0
:10C1D8004F525F494E56414C49445F4441544100D7
:10C1E8004E52465F4552524F525F444154415F534D
:10C1F800495A45004E52465F4552524F525F544984
:10C208004D454F5554004E52465F4552524F525F6E
:10C218004E554C4C004E52465F4552524F525F4667
:10C228004F5242494444454E004E52465F45525291
:10C238004F525F494E56414C49445F414444520075
:10C248004E52465F4552524F525F42555359004E27
:10C2580052465F4552524F525F434F4E4E5F434FD7
:10C26800554E54004E52465F4552524F525F52450A
:10C27800534F5552434553004E52465F4552524F15
:10C28800525F4D4F44554C455F4E4F545F494E49A0
:10C298005449414C495A4544004E52465F45525212
:10C2A8004F525F4D555445585F494E49545F46417A
:10C2B800494C4544004E52465F4552524F525F4DDD
:10C2C800555445585F4C4F434B5F4641494C454494
:10C2D800004E52465F4552524F525F4D5554455895
:10C2E8005F554E4C4F434B5F4641494C4544004EC9
:10C2F80052465F4552524F525F4D555445585F4321
:10C308004F4E445F494E49545F4641494C454400AD
:10C318004E52465F4552524F525F4D4F44554C4521
:10C328005F414C52454144595F494E495449414C3B
:10C33800495A4544004E52465F4552524F525F5348
:10C34800544F524147455F46554C4C004E52465F4C
:10C358004552524F525F4150495F4E4F545F494DCD
:10C36800504C454D454E544544004E52465F45524B
:10C37800524F525F464541545552455F4E4F545FA8
:10C38800454E41424C4544004E52465F4552524F3D
:10C39800525F494F5F50454E44494E47004E524602
:10C3A8005F4552524F525F4452565F5457495F455A
:10C3B80052525F4F56455252554E004E52465F45B7
:10C3C80052524F525F4452565F5457495F4552523A
:10C3D8005F414E41434B004E52465F4552524F52C9
:10C3E8005F4452565F5457495F4552525F444E412D
:10C3F800434B004E52465F4552524F525F424C45A6
:10C408005F495053505F52585F504B545F545255D8
:10C418004E4341544544004E52465F4552524F5296
:10C428005F424C455F495053505F4348414E4E452B
:10C438004C5F414C52454144595F45584953545308
:10C44800004E52465F4552524F525F424C455F493B
:10C458005053505F4C494E4B5F444953434F4E4EE7
:10C468004543544544004E52465F4552524F525F31
:10C47800424C455F495053505F504545525F5245C5
:10C488004A454354454400556E6B6E6F776E206580
:10C4980072726F7220636F64650000000000000014
:10C4A800D5C0020001000000E1C002000200000047
:10C4B800FFC002000300000020C1020004000000C9
:10C4C80033C102000500000044C10200060000005C
:10C4D80058C102000700000070C1020008000000F7
:10C4E80088C1020009000000A0C102000A00000083
:10C4F800B9C102000B000000D1C102000C0000000D
:10C50800E8C102000D000000FCC102000E0000009E
:10C518000EC202000F0000001DC202001000000041
:10C5280031C202001100000048C2020012000000DF
:10C5380057C20200130000006CC202008000000015
:10C5480080C2020081000000A1C202008200000037
:10C55800BDC2020083000000D9C2020084000000AE
:10C56800F7C202008500000018C302008600000020
:10C578003DC302009000000054C302009100000077
:10C5880072C302009200000090C302000082000003
:10C59800A5C3020001820000C3C30200028200009A
:10C5A800DFC3020000840000FBC302000184000016
:10C5B8001FC402000284000049C402000384000072
:10C5C8006EC402000000000001010100000000002C
:10C5D8000D0E0F10636C6F636B00434C4F434B00A1
:10C5E8004750494F5445005052530055415254004A
:10C5F800554152544500436F6E6E6563746564001F
:10C60800446973636F6E6E65637465640053656E29
:10C618006420627574746F6E20737461746520632E
:10C6280068616E67652E005265636569766564208A
:10C638004C4544204F4E2100526563656976656418
:10C64800204C4544204F464621004E6F7264696372
:10C658005F426C696E6B7900426C696E6B7920651C
:10C6680078616D706C6520737461727465642E00F6
:10C6780073645F626C655F6761705F646174615F5A
:10C688006C656E6774685F757064617465282920CD
:10C69800287265717565737429206F6E20636F6EDB
:10C6A8006E656374696F6E203078257820726574C2
:10C6B80075726E65642025732E0054686520726556
:10C6C800717565737465642054582F5258207061D1
:10C6D800636B6574206C656E677468206973207479
:10C6E8006F6F206C6F6E672062792025752F257516
:10C6F800206F63746574732E0054686520726571C9
:10C7080075657374656420636F6D62696E617469C1
:10C718006F6E206F6620545820616E642052582036
:10C728007061636B6574206C656E677468732069EB
:10C738007320746F6F206C6F6E6720627920257587
:10C74800206D6963726F7365636F6E64732E007317
:10C75800645F626C655F67617474635F6578636862
:10C76800616E67655F6D74755F7265717565737409
:10C7780028292072657475726E65642025732E00F1
:10C7880073645F626C655F67617474735F65786317
:10C7980068616E67655F6D74755F7265706C792826
:10C7A800292072657475726E65642025732E006E7B
:10C7B80072665F626C655F676174740023D1BCEA5E
:10C7C8005F782315DEEF1212000000006E72665FBC
:10C7D800736468000010100144BE020044BE0200E9
:10C7E800080000004CBE02005CBE02000800000009
:10C7F80044BE02004CBE02000800000073645F6281
:10C808006C655F6366675F73657428292072657459
:10C8180075726E6564202573207768656E20617473
:10C8280074656D7074696E6720746F207365742009
:10C83800424C455F434F4E4E5F4346475F4741502A
:10C848002E0073645F626C655F6366675F7365740F
:10C8580028292072657475726E65642025732077A7
:10C8680068656E20617474656D7074696E67207494
:10C878006F2073657420424C455F4741505F4346C3
:10C88800475F524F4C455F434F554E542E007364DB
:10C898005F626C655F6366675F73657428292072E1
:10C8A800657475726E6564202573207768656E20DF
:10C8B800617474656D7074696E6720746F20736538
:10C8C8007420424C455F434F4D4D4F4E5F434647A2
:10C8D8005F56535F555549442E0073645F626C651B
:10C8E8005F6366675F736574282920726574757263
:10C8F8006E6564202573207768656E2061747465A1
:10C908006D7074696E6720746F2073657420424C73
:10C91800455F47415454535F4346475F415454521F
:10C928005F5441425F53495A452E0073645F626CFD
:10C93800655F6366675F736574282920726574751F
:10C94800726E6564202573207768656E2061747443
:10C95800656D7074696E6720746F2073657420420A
:10C968004C455F47415454535F4346475F534552D4
:10C97800564943455F4348414E4745442E00496E5A
:10C9880073756666696369656E742052414D2061EE
:10C998006C6C6F636174656420666F72207468657F
:10C9A80020536F66744465766963652E0043686139
:10C9B8006E6765207468652052414D2073746172FA
:10C9C80074206C6F636174696F6E2066726F6D207E
:10C9D8003078257820746F20307825782E004D61C6
:10C9E80078696D756D2052414D2073697A652066AE
:10C9F8006F72206170706C69636174696F6E206911
:10CA08007320307825782E0073645F626C655F65EB
:10CA18006E61626C6528292072657475726E656432
:10CA28002025732E006E72665F7364685F626C65A2
:10CA38000000000014BE020044BE0200080000000E
:10CA48006E72665F7364685F736F63000CBE02008A
:10CA580014BE02000800000043000000504F534974
:10CA6800580000002020202020202020206828288E
:10CA7800282820202020202020202020202020209E
:10CA88002020202048101010101010101010101026
:10CA98001010101084848484848484848484101006
:10CAA8001010101010818181818181010101010123
:10CAB800010101010101010101010101010101104F
:10CAC80010101010108282828282820202020202F8
